{
  "_format": "hh-sol-artifact-1",
  "contractName": "LazlosPizzas",
  "sourceName": "contracts/LazlosPizzas.sol",
  "abi": [
    {
      "inputs": [],
      "stateMutability": "nonpayable",
      "type": "constructor"
    },
    {
      "anonymous": false,
      "inputs": [
        {
          "indexed": true,
          "internalType": "address",
          "name": "owner",
          "type": "address"
        },
        {
          "indexed": true,
          "internalType": "address",
          "name": "spender",
          "type": "address"
        },
        {
          "indexed": true,
          "internalType": "uint256",
          "name": "id",
          "type": "uint256"
        }
      ],
      "name": "Approval",
      "type": "event"
    },
    {
      "anonymous": false,
      "inputs": [
        {
          "indexed": true,
          "internalType": "address",
          "name": "owner",
          "type": "address"
        },
        {
          "indexed": true,
          "internalType": "address",
          "name": "operator",
          "type": "address"
        },
        {
          "indexed": false,
          "internalType": "bool",
          "name": "approved",
          "type": "bool"
        }
      ],
      "name": "ApprovalForAll",
      "type": "event"
    },
    {
      "anonymous": false,
      "inputs": [
        {
          "indexed": true,
          "internalType": "address",
          "name": "previousOwner",
          "type": "address"
        },
        {
          "indexed": true,
          "internalType": "address",
          "name": "newOwner",
          "type": "address"
        }
      ],
      "name": "OwnershipTransferred",
      "type": "event"
    },
    {
      "anonymous": false,
      "inputs": [
        {
          "indexed": true,
          "internalType": "address",
          "name": "from",
          "type": "address"
        },
        {
          "indexed": true,
          "internalType": "address",
          "name": "to",
          "type": "address"
        },
        {
          "indexed": true,
          "internalType": "uint256",
          "name": "id",
          "type": "uint256"
        }
      ],
      "name": "Transfer",
      "type": "event"
    },
    {
      "inputs": [
        {
          "internalType": "address",
          "name": "spender",
          "type": "address"
        },
        {
          "internalType": "uint256",
          "name": "id",
          "type": "uint256"
        }
      ],
      "name": "approve",
      "outputs": [],
      "stateMutability": "nonpayable",
      "type": "function"
    },
    {
      "inputs": [
        {
          "internalType": "address",
          "name": "baker",
          "type": "address"
        },
        {
          "components": [
            {
              "internalType": "uint16",
              "name": "base",
              "type": "uint16"
            },
            {
              "internalType": "uint16",
              "name": "sauce",
              "type": "uint16"
            },
            {
              "internalType": "uint16[3]",
              "name": "cheeses",
              "type": "uint16[3]"
            },
            {
              "internalType": "uint16[4]",
              "name": "meats",
              "type": "uint16[4]"
            },
            {
              "internalType": "uint16[4]",
              "name": "toppings",
              "type": "uint16[4]"
            }
          ],
          "internalType": "struct Pizza",
          "name": "pizzaData",
          "type": "tuple"
        }
      ],
      "name": "bake",
      "outputs": [
        {
          "internalType": "uint256",
          "name": "",
          "type": "uint256"
        }
      ],
      "stateMutability": "nonpayable",
      "type": "function"
    },
    {
      "inputs": [
        {
          "internalType": "address",
          "name": "",
          "type": "address"
        }
      ],
      "name": "balanceOf",
      "outputs": [
        {
          "internalType": "uint256",
          "name": "",
          "type": "uint256"
        }
      ],
      "stateMutability": "view",
      "type": "function"
    },
    {
      "inputs": [
        {
          "internalType": "uint256",
          "name": "",
          "type": "uint256"
        }
      ],
      "name": "getApproved",
      "outputs": [
        {
          "internalType": "address",
          "name": "",
          "type": "address"
        }
      ],
      "stateMutability": "view",
      "type": "function"
    },
    {
      "inputs": [
        {
          "internalType": "address",
          "name": "",
          "type": "address"
        },
        {
          "internalType": "address",
          "name": "",
          "type": "address"
        }
      ],
      "name": "isApprovedForAll",
      "outputs": [
        {
          "internalType": "bool",
          "name": "",
          "type": "bool"
        }
      ],
      "stateMutability": "view",
      "type": "function"
    },
    {
      "inputs": [],
      "name": "name",
      "outputs": [
        {
          "internalType": "string",
          "name": "",
          "type": "string"
        }
      ],
      "stateMutability": "view",
      "type": "function"
    },
    {
      "inputs": [],
      "name": "numPizzas",
      "outputs": [
        {
          "internalType": "uint256",
          "name": "_value",
          "type": "uint256"
        }
      ],
      "stateMutability": "view",
      "type": "function"
    },
    {
      "inputs": [],
      "name": "owner",
      "outputs": [
        {
          "internalType": "address",
          "name": "",
          "type": "address"
        }
      ],
      "stateMutability": "view",
      "type": "function"
    },
    {
      "inputs": [
        {
          "internalType": "uint256",
          "name": "",
          "type": "uint256"
        }
      ],
      "name": "ownerOf",
      "outputs": [
        {
          "internalType": "address",
          "name": "",
          "type": "address"
        }
      ],
      "stateMutability": "view",
      "type": "function"
    },
    {
      "inputs": [
        {
          "internalType": "uint256",
          "name": "tokenId",
          "type": "uint256"
        }
      ],
      "name": "pizza",
      "outputs": [
        {
          "components": [
            {
              "internalType": "uint16",
              "name": "base",
              "type": "uint16"
            },
            {
              "internalType": "uint16",
              "name": "sauce",
              "type": "uint16"
            },
            {
              "internalType": "uint16[3]",
              "name": "cheeses",
              "type": "uint16[3]"
            },
            {
              "internalType": "uint16[4]",
              "name": "meats",
              "type": "uint16[4]"
            },
            {
              "internalType": "uint16[4]",
              "name": "toppings",
              "type": "uint16[4]"
            }
          ],
          "internalType": "struct Pizza",
          "name": "",
          "type": "tuple"
        }
      ],
      "stateMutability": "view",
      "type": "function"
    },
    {
      "inputs": [],
      "name": "pizzaShopContractAddress",
      "outputs": [
        {
          "internalType": "address",
          "name": "",
          "type": "address"
        }
      ],
      "stateMutability": "view",
      "type": "function"
    },
    {
      "inputs": [
        {
          "internalType": "address",
          "name": "baker",
          "type": "address"
        },
        {
          "internalType": "uint256",
          "name": "pizzaTokenId",
          "type": "uint256"
        },
        {
          "components": [
            {
              "internalType": "uint16",
              "name": "base",
              "type": "uint16"
            },
            {
              "internalType": "uint16",
              "name": "sauce",
              "type": "uint16"
            },
            {
              "internalType": "uint16[3]",
              "name": "cheeses",
              "type": "uint16[3]"
            },
            {
              "internalType": "uint16[4]",
              "name": "meats",
              "type": "uint16[4]"
            },
            {
              "internalType": "uint16[4]",
              "name": "toppings",
              "type": "uint16[4]"
            }
          ],
          "internalType": "struct Pizza",
          "name": "pizzaData",
          "type": "tuple"
        }
      ],
      "name": "rebake",
      "outputs": [],
      "stateMutability": "nonpayable",
      "type": "function"
    },
    {
      "inputs": [],
      "name": "renderingContractAddress",
      "outputs": [
        {
          "internalType": "address",
          "name": "",
          "type": "address"
        }
      ],
      "stateMutability": "view",
      "type": "function"
    },
    {
      "inputs": [],
      "name": "renounceOwnership",
      "outputs": [],
      "stateMutability": "nonpayable",
      "type": "function"
    },
    {
      "inputs": [
        {
          "internalType": "address",
          "name": "from",
          "type": "address"
        },
        {
          "internalType": "address",
          "name": "to",
          "type": "address"
        },
        {
          "internalType": "uint256",
          "name": "id",
          "type": "uint256"
        }
      ],
      "name": "safeTransferFrom",
      "outputs": [],
      "stateMutability": "nonpayable",
      "type": "function"
    },
    {
      "inputs": [
        {
          "internalType": "address",
          "name": "from",
          "type": "address"
        },
        {
          "internalType": "address",
          "name": "to",
          "type": "address"
        },
        {
          "internalType": "uint256",
          "name": "id",
          "type": "uint256"
        },
        {
          "internalType": "bytes",
          "name": "data",
          "type": "bytes"
        }
      ],
      "name": "safeTransferFrom",
      "outputs": [],
      "stateMutability": "nonpayable",
      "type": "function"
    },
    {
      "inputs": [
        {
          "internalType": "address",
          "name": "operator",
          "type": "address"
        },
        {
          "internalType": "bool",
          "name": "approved",
          "type": "bool"
        }
      ],
      "name": "setApprovalForAll",
      "outputs": [],
      "stateMutability": "nonpayable",
      "type": "function"
    },
    {
      "inputs": [
        {
          "internalType": "address",
          "name": "addr",
          "type": "address"
        }
      ],
      "name": "setPizzaShopContractAddress",
      "outputs": [],
      "stateMutability": "nonpayable",
      "type": "function"
    },
    {
      "inputs": [
        {
          "internalType": "address",
          "name": "addr",
          "type": "address"
        }
      ],
      "name": "setRenderingContractAddress",
      "outputs": [],
      "stateMutability": "nonpayable",
      "type": "function"
    },
    {
      "inputs": [
        {
          "internalType": "bytes4",
          "name": "interfaceId",
          "type": "bytes4"
        }
      ],
      "name": "supportsInterface",
      "outputs": [
        {
          "internalType": "bool",
          "name": "",
          "type": "bool"
        }
      ],
      "stateMutability": "view",
      "type": "function"
    },
    {
      "inputs": [],
      "name": "symbol",
      "outputs": [
        {
          "internalType": "string",
          "name": "",
          "type": "string"
        }
      ],
      "stateMutability": "view",
      "type": "function"
    },
    {
      "inputs": [
        {
          "internalType": "uint256",
          "name": "id",
          "type": "uint256"
        }
      ],
      "name": "tokenURI",
      "outputs": [
        {
          "internalType": "string",
          "name": "",
          "type": "string"
        }
      ],
      "stateMutability": "view",
      "type": "function"
    },
    {
      "inputs": [
        {
          "internalType": "address",
          "name": "from",
          "type": "address"
        },
        {
          "internalType": "address",
          "name": "to",
          "type": "address"
        },
        {
          "internalType": "uint256",
          "name": "id",
          "type": "uint256"
        }
      ],
      "name": "transferFrom",
      "outputs": [],
      "stateMutability": "nonpayable",
      "type": "function"
    },
    {
      "inputs": [
        {
          "internalType": "address",
          "name": "newOwner",
          "type": "address"
        }
      ],
      "name": "transferOwnership",
      "outputs": [],
      "stateMutability": "nonpayable",
      "type": "function"
    }
  ],
  "bytecode": "0x60806040523480156200001157600080fd5b506040518060400160405280600d81526020017f4c617a6c6f27732050697a7a61000000000000000000000000000000000000008152506040518060400160405280600581526020017f4c415a4c4f000000000000000000000000000000000000000000000000000000815250816000908051906020019062000096929190620001a6565b508060019080519060200190620000af929190620001a6565b505050620000d2620000c6620000d860201b60201c565b620000e060201b60201c565b620002bb565b600033905090565b6000600660009054906101000a900473ffffffffffffffffffffffffffffffffffffffff16905081600660006101000a81548173ffffffffffffffffffffffffffffffffffffffff021916908373ffffffffffffffffffffffffffffffffffffffff1602179055508173ffffffffffffffffffffffffffffffffffffffff168173ffffffffffffffffffffffffffffffffffffffff167f8be0079c531659141344cd1fd0a4f28419497f9722a3daafe3b4186f6b6457e060405160405180910390a35050565b828054620001b49062000285565b90600052602060002090601f016020900481019282620001d8576000855562000224565b82601f10620001f357805160ff191683800117855562000224565b8280016001018555821562000224579182015b828111156200022357825182559160200191906001019062000206565b5b50905062000233919062000237565b5090565b5b808211156200025257600081600090555060010162000238565b5090565b7f4e487b7100000000000000000000000000000000000000000000000000000000600052602260045260246000fd5b600060028204905060018216806200029e57607f821691505b60208210811415620002b557620002b462000256565b5b50919050565b61309f80620002cb6000396000f3fe608060405234801561001057600080fd5b50600436106101585760003560e01c8063715018a6116100c3578063c074f4121161007c578063c074f412146103b1578063c87b56dd146103cf578063e985e9c5146103ff578063ea131c281461042f578063f2fde38b1461045f578063fd9f80051461047b57610158565b8063715018a614610315578063795c0a4b1461031f5780638da5cb5b1461033d57806395d89b411461035b578063a22cb46514610379578063b88d4fde1461039557610158565b806312b40a9f1161011557806312b40a9f1461024357806323b872dd1461025f5780634103693c1461027b57806342842e0e146102995780636352211e146102b557806370a08231146102e557610158565b806301ffc9a71461015d5780630452d8ed1461018d57806306fdde03146101a9578063081812fc146101c7578063095ea7b3146101f75780630aa71aa014610213575b600080fd5b61017760048036038101906101729190612034565b610497565b604051610184919061207c565b60405180910390f35b6101a760048036038101906101a291906120f5565b610529565b005b6101b16105e9565b6040516101be91906121bb565b60405180910390f35b6101e160048036038101906101dc9190612213565b610677565b6040516101ee919061224f565b60405180910390f35b610211600480360381019061020c919061226a565b6106aa565b005b61022d60048036038101906102289190612213565b610893565b60405161023a9190612451565b60405180910390f35b61025d600480360381019061025891906120f5565b610a47565b005b6102796004803603810190610274919061246d565b610b07565b005b610283610f07565b60405161029091906124cf565b60405180910390f35b6102b360048036038101906102ae919061246d565b610f13565b005b6102cf60048036038101906102ca9190612213565b61105a565b6040516102dc919061224f565b60405180910390f35b6102ff60048036038101906102fa91906120f5565b61108d565b60405161030c91906124cf565b60405180910390f35b61031d6110a5565b005b61032761112d565b604051610334919061224f565b60405180910390f35b610345611153565b604051610352919061224f565b60405180910390f35b61036361117d565b60405161037091906121bb565b60405180910390f35b610393600480360381019061038e9190612516565b61120b565b005b6103af60048036038101906103aa91906125bb565b611308565b005b6103b9611455565b6040516103c6919061224f565b60405180910390f35b6103e960048036038101906103e49190612213565b61147b565b6040516103f691906121bb565b60405180910390f35b61041960048036038101906104149190612643565b611534565b604051610426919061207c565b60405180910390f35b6104496004803603810190610444919061291f565b611563565b60405161045691906124cf565b60405180910390f35b610479600480360381019061047491906120f5565b6116c6565b005b61049560048036038101906104909190612960565b6117be565b005b60006301ffc9a760e01b827bffffffffffffffffffffffffffffffffffffffffffffffffffffffff191614806104f257506380ac58cd60e01b827bffffffffffffffffffffffffffffffffffffffffffffffffffffffff1916145b806105225750635b5e139f60e01b827bffffffffffffffffffffffffffffffffffffffffffffffffffffffff1916145b9050919050565b610531611999565b73ffffffffffffffffffffffffffffffffffffffff1661054f611153565b73ffffffffffffffffffffffffffffffffffffffff16146105a5576040517f08c379a000000000000000000000000000000000000000000000000000000000815260040161059c90612a00565b60405180910390fd5b80600760006101000a81548173ffffffffffffffffffffffffffffffffffffffff021916908373ffffffffffffffffffffffffffffffffffffffff16021790555050565b600080546105f690612a4f565b80601f016020809104026020016040519081016040528092919081815260200182805461062290612a4f565b801561066f5780601f106106445761010080835404028352916020019161066f565b820191906000526020600020905b81548152906001019060200180831161065257829003601f168201915b505050505081565b60046020528060005260406000206000915054906101000a900473ffffffffffffffffffffffffffffffffffffffff1681565b60006003600083815260200190815260200160002060009054906101000a900473ffffffffffffffffffffffffffffffffffffffff1690508073ffffffffffffffffffffffffffffffffffffffff163373ffffffffffffffffffffffffffffffffffffffff1614806107a25750600560008273ffffffffffffffffffffffffffffffffffffffff1673ffffffffffffffffffffffffffffffffffffffff16815260200190815260200160002060003373ffffffffffffffffffffffffffffffffffffffff1673ffffffffffffffffffffffffffffffffffffffff16815260200190815260200160002060009054906101000a900460ff165b6107e1576040517f08c379a00000000000000000000000000000000000000000000000000000000081526004016107d890612acd565b60405180910390fd5b826004600084815260200190815260200160002060006101000a81548173ffffffffffffffffffffffffffffffffffffffff021916908373ffffffffffffffffffffffffffffffffffffffff160217905550818373ffffffffffffffffffffffffffffffffffffffff168273ffffffffffffffffffffffffffffffffffffffff167f8c5be1e5ebec7d5bd14f71427d1e84f3dd0314c0f7b2291e5b200ac8c7c3b92560405160405180910390a4505050565b61089b611de4565b600a60008381526020019081526020016000206040518060a00160405290816000820160009054906101000a900461ffff1661ffff1661ffff1681526020016000820160029054906101000a900461ffff1661ffff1661ffff1681526020016001820160038060200260405190810160405280929190826003801561095d576020028201916000905b82829054906101000a900461ffff1661ffff16815260200190600201906020826001010492830192600103820291508084116109245790505b50505050508152602001600282016004806020026040519081016040528092919082600480156109ca576020028201916000905b82829054906101000a900461ffff1661ffff16815260200190600201906020826001010492830192600103820291508084116109915790505b5050505050815260200160038201600480602002604051908101604052809291908260048015610a37576020028201916000905b82829054906101000a900461ffff1661ffff16815260200190600201906020826001010492830192600103820291508084116109fe5790505b5050505050815250509050919050565b610a4f611999565b73ffffffffffffffffffffffffffffffffffffffff16610a6d611153565b73ffffffffffffffffffffffffffffffffffffffff1614610ac3576040517f08c379a0000000000000000000000000000000000000000000000000000000008152600401610aba90612a00565b60405180910390fd5b80600860006101000a81548173ffffffffffffffffffffffffffffffffffffffff021916908373ffffffffffffffffffffffffffffffffffffffff16021790555050565b6003600082815260200190815260200160002060009054906101000a900473ffffffffffffffffffffffffffffffffffffffff1673ffffffffffffffffffffffffffffffffffffffff168373ffffffffffffffffffffffffffffffffffffffff1614610ba8576040517f08c379a0000000000000000000000000000000000000000000000000000000008152600401610b9f90612b39565b60405180910390fd5b600073ffffffffffffffffffffffffffffffffffffffff168273ffffffffffffffffffffffffffffffffffffffff161415610c18576040517f08c379a0000000000000000000000000000000000000000000000000000000008152600401610c0f90612ba5565b60405180910390fd5b8273ffffffffffffffffffffffffffffffffffffffff163373ffffffffffffffffffffffffffffffffffffffff161480610cd85750600560008473ffffffffffffffffffffffffffffffffffffffff1673ffffffffffffffffffffffffffffffffffffffff16815260200190815260200160002060003373ffffffffffffffffffffffffffffffffffffffff1673ffffffffffffffffffffffffffffffffffffffff16815260200190815260200160002060009054906101000a900460ff165b80610d4157506004600082815260200190815260200160002060009054906101000a900473ffffffffffffffffffffffffffffffffffffffff1673ffffffffffffffffffffffffffffffffffffffff163373ffffffffffffffffffffffffffffffffffffffff16145b610d80576040517f08c379a0000000000000000000000000000000000000000000000000000000008152600401610d7790612acd565b60405180910390fd5b600260008473ffffffffffffffffffffffffffffffffffffffff1673ffffffffffffffffffffffffffffffffffffffff1681526020019081526020016000206000815480929190600190039190505550600260008373ffffffffffffffffffffffffffffffffffffffff1673ffffffffffffffffffffffffffffffffffffffff16815260200190815260200160002060008154809291906001019190505550816003600083815260200190815260200160002060006101000a81548173ffffffffffffffffffffffffffffffffffffffff021916908373ffffffffffffffffffffffffffffffffffffffff1602179055506004600082815260200190815260200160002060006101000a81549073ffffffffffffffffffffffffffffffffffffffff0219169055808273ffffffffffffffffffffffffffffffffffffffff168473ffffffffffffffffffffffffffffffffffffffff167fddf252ad1be2c89b69c2b068fc378daa952ba7f163c4a11628f55a4df523b3ef60405160405180910390a4505050565b60098060000154905081565b610f1e838383610b07565b60008273ffffffffffffffffffffffffffffffffffffffff163b1480611016575063150b7a0260e01b7bffffffffffffffffffffffffffffffffffffffffffffffffffffffff19168273ffffffffffffffffffffffffffffffffffffffff1663150b7a023386856040518463ffffffff1660e01b8152600401610fa393929190612bfc565b602060405180830381600087803b158015610fbd57600080fd5b505af1158015610fd1573d6000803e3d6000fd5b505050506040513d601f19601f82011682018060405250810190610ff59190612c5b565b7bffffffffffffffffffffffffffffffffffffffffffffffffffffffff1916145b611055576040517f08c379a000000000000000000000000000000000000000000000000000000000815260040161104c90612cd4565b60405180910390fd5b505050565b60036020528060005260406000206000915054906101000a900473ffffffffffffffffffffffffffffffffffffffff1681565b60026020528060005260406000206000915090505481565b6110ad611999565b73ffffffffffffffffffffffffffffffffffffffff166110cb611153565b73ffffffffffffffffffffffffffffffffffffffff1614611121576040517f08c379a000000000000000000000000000000000000000000000000000000000815260040161111890612a00565b60405180910390fd5b61112b60006119a1565b565b600760009054906101000a900473ffffffffffffffffffffffffffffffffffffffff1681565b6000600660009054906101000a900473ffffffffffffffffffffffffffffffffffffffff16905090565b6001805461118a90612a4f565b80601f01602080910402602001604051908101604052809291908181526020018280546111b690612a4f565b80156112035780601f106111d857610100808354040283529160200191611203565b820191906000526020600020905b8154815290600101906020018083116111e657829003601f168201915b505050505081565b80600560003373ffffffffffffffffffffffffffffffffffffffff1673ffffffffffffffffffffffffffffffffffffffff16815260200190815260200160002060008473ffffffffffffffffffffffffffffffffffffffff1673ffffffffffffffffffffffffffffffffffffffff16815260200190815260200160002060006101000a81548160ff0219169083151502179055508173ffffffffffffffffffffffffffffffffffffffff163373ffffffffffffffffffffffffffffffffffffffff167f17307eab39ab6107e8899845ad3d59bd9653f200f220920489ca2b5937696c31836040516112fc919061207c565b60405180910390a35050565b611313858585610b07565b60008473ffffffffffffffffffffffffffffffffffffffff163b148061140f575063150b7a0260e01b7bffffffffffffffffffffffffffffffffffffffffffffffffffffffff19168473ffffffffffffffffffffffffffffffffffffffff1663150b7a0233888787876040518663ffffffff1660e01b815260040161139c959493929190612d30565b602060405180830381600087803b1580156113b657600080fd5b505af11580156113ca573d6000803e3d6000fd5b505050506040513d601f19601f820116820180604052508101906113ee9190612c5b565b7bffffffffffffffffffffffffffffffffffffffffffffffffffffffff1916145b61144e576040517f08c379a000000000000000000000000000000000000000000000000000000000815260040161144590612cd4565b60405180910390fd5b5050505050565b600860009054906101000a900473ffffffffffffffffffffffffffffffffffffffff1681565b6060600860009054906101000a900473ffffffffffffffffffffffffffffffffffffffff1673ffffffffffffffffffffffffffffffffffffffff16630976d625836040518263ffffffff1660e01b81526004016114d891906124cf565b60006040518083038186803b1580156114f057600080fd5b505afa158015611504573d6000803e3d6000fd5b505050506040513d6000823e3d601f19601f8201168201806040525081019061152d9190612e24565b9050919050565b60056020528160005260406000206020528060005260406000206000915091509054906101000a900460ff1681565b6000600760009054906101000a900473ffffffffffffffffffffffffffffffffffffffff1673ffffffffffffffffffffffffffffffffffffffff163373ffffffffffffffffffffffffffffffffffffffff16146115f5576040517f08c379a00000000000000000000000000000000000000000000000000000000081526004016115ec90612edf565b60405180910390fd5b6115ff6009611a67565b600061160b6009611a7d565b905082600a600083815260200190815260200160002060008201518160000160006101000a81548161ffff021916908361ffff16021790555060208201518160000160026101000a81548161ffff021916908361ffff16021790555060408201518160010190600361167e929190611e2d565b50606082015181600201906004611696929190611eca565b506080820151816003019060046116ae929190611eca565b509050506116bc8482611a8b565b8091505092915050565b6116ce611999565b73ffffffffffffffffffffffffffffffffffffffff166116ec611153565b73ffffffffffffffffffffffffffffffffffffffff1614611742576040517f08c379a000000000000000000000000000000000000000000000000000000000815260040161173990612a00565b60405180910390fd5b600073ffffffffffffffffffffffffffffffffffffffff168173ffffffffffffffffffffffffffffffffffffffff1614156117b2576040517f08c379a00000000000000000000000000000000000000000000000000000000081526004016117a990612f71565b60405180910390fd5b6117bb816119a1565b50565b600760009054906101000a900473ffffffffffffffffffffffffffffffffffffffff1673ffffffffffffffffffffffffffffffffffffffff163373ffffffffffffffffffffffffffffffffffffffff161461184e576040517f08c379a000000000000000000000000000000000000000000000000000000000815260040161184590612edf565b60405180910390fd5b6003600083815260200190815260200160002060009054906101000a900473ffffffffffffffffffffffffffffffffffffffff1673ffffffffffffffffffffffffffffffffffffffff168373ffffffffffffffffffffffffffffffffffffffff16146118ef576040517f08c379a00000000000000000000000000000000000000000000000000000000081526004016118e690612fdd565b60405180910390fd5b80600a600084815260200190815260200160002060008201518160000160006101000a81548161ffff021916908361ffff16021790555060208201518160000160026101000a81548161ffff021916908361ffff160217905550604082015181600101906003611960929190611e2d565b50606082015181600201906004611978929190611eca565b50608082015181600301906004611990929190611eca565b50905050505050565b600033905090565b6000600660009054906101000a900473ffffffffffffffffffffffffffffffffffffffff16905081600660006101000a81548173ffffffffffffffffffffffffffffffffffffffff021916908373ffffffffffffffffffffffffffffffffffffffff1602179055508173ffffffffffffffffffffffffffffffffffffffff168173ffffffffffffffffffffffffffffffffffffffff167f8be0079c531659141344cd1fd0a4f28419497f9722a3daafe3b4186f6b6457e060405160405180910390a35050565b6001816000016000828254019250508190555050565b600081600001549050919050565b611a958282611bd1565b60008273ffffffffffffffffffffffffffffffffffffffff163b1480611b8e575063150b7a0260e01b7bffffffffffffffffffffffffffffffffffffffffffffffffffffffff19168273ffffffffffffffffffffffffffffffffffffffff1663150b7a02336000856040518463ffffffff1660e01b8152600401611b1b93929190612bfc565b602060405180830381600087803b158015611b3557600080fd5b505af1158015611b49573d6000803e3d6000fd5b505050506040513d601f19601f82011682018060405250810190611b6d9190612c5b565b7bffffffffffffffffffffffffffffffffffffffffffffffffffffffff1916145b611bcd576040517f08c379a0000000000000000000000000000000000000000000000000000000008152600401611bc490612cd4565b60405180910390fd5b5050565b600073ffffffffffffffffffffffffffffffffffffffff168273ffffffffffffffffffffffffffffffffffffffff161415611c41576040517f08c379a0000000000000000000000000000000000000000000000000000000008152600401611c3890612ba5565b60405180910390fd5b600073ffffffffffffffffffffffffffffffffffffffff166003600083815260200190815260200160002060009054906101000a900473ffffffffffffffffffffffffffffffffffffffff1673ffffffffffffffffffffffffffffffffffffffff1614611ce3576040517f08c379a0000000000000000000000000000000000000000000000000000000008152600401611cda90613049565b60405180910390fd5b600260008373ffffffffffffffffffffffffffffffffffffffff1673ffffffffffffffffffffffffffffffffffffffff16815260200190815260200160002060008154809291906001019190505550816003600083815260200190815260200160002060006101000a81548173ffffffffffffffffffffffffffffffffffffffff021916908373ffffffffffffffffffffffffffffffffffffffff160217905550808273ffffffffffffffffffffffffffffffffffffffff16600073ffffffffffffffffffffffffffffffffffffffff167fddf252ad1be2c89b69c2b068fc378daa952ba7f163c4a11628f55a4df523b3ef60405160405180910390a45050565b6040518060a00160405280600061ffff168152602001600061ffff168152602001611e0d611f67565b8152602001611e1a611f89565b8152602001611e27611f89565b81525090565b826003600f01601090048101928215611eb95791602002820160005b83821115611e8957835183826101000a81548161ffff021916908361ffff1602179055509260200192600201602081600101049283019260010302611e49565b8015611eb75782816101000a81549061ffff0219169055600201602081600101049283019260010302611e89565b505b509050611ec69190611fab565b5090565b826004600f01601090048101928215611f565791602002820160005b83821115611f2657835183826101000a81548161ffff021916908361ffff1602179055509260200192600201602081600101049283019260010302611ee6565b8015611f545782816101000a81549061ffff0219169055600201602081600101049283019260010302611f26565b505b509050611f639190611fab565b5090565b6040518060600160405280600390602082028036833780820191505090505090565b6040518060800160405280600490602082028036833780820191505090505090565b5b80821115611fc4576000816000905550600101611fac565b5090565b6000604051905090565b600080fd5b600080fd5b60007fffffffff0000000000000000000000000000000000000000000000000000000082169050919050565b61201181611fdc565b811461201c57600080fd5b50565b60008135905061202e81612008565b92915050565b60006020828403121561204a57612049611fd2565b5b60006120588482850161201f565b91505092915050565b60008115159050919050565b61207681612061565b82525050565b6000602082019050612091600083018461206d565b92915050565b600073ffffffffffffffffffffffffffffffffffffffff82169050919050565b60006120c282612097565b9050919050565b6120d2816120b7565b81146120dd57600080fd5b50565b6000813590506120ef816120c9565b92915050565b60006020828403121561210b5761210a611fd2565b5b6000612119848285016120e0565b91505092915050565b600081519050919050565b600082825260208201905092915050565b60005b8381101561215c578082015181840152602081019050612141565b8381111561216b576000848401525b50505050565b6000601f19601f8301169050919050565b600061218d82612122565b612197818561212d565b93506121a781856020860161213e565b6121b081612171565b840191505092915050565b600060208201905081810360008301526121d58184612182565b905092915050565b6000819050919050565b6121f0816121dd565b81146121fb57600080fd5b50565b60008135905061220d816121e7565b92915050565b60006020828403121561222957612228611fd2565b5b6000612237848285016121fe565b91505092915050565b612249816120b7565b82525050565b60006020820190506122646000830184612240565b92915050565b6000806040838503121561228157612280611fd2565b5b600061228f858286016120e0565b92505060206122a0858286016121fe565b9150509250929050565b600061ffff82169050919050565b6122c1816122aa565b82525050565b600060039050919050565b600081905092915050565b6000819050919050565b60006122f383836122b8565b60208301905092915050565b6000602082019050919050565b612315816122c7565b61231f81846122d2565b925061232a826122dd565b8060005b8381101561235b57815161234287826122e7565b965061234d836122ff565b92505060018101905061232e565b505050505050565b600060049050919050565b600081905092915050565b6000819050919050565b6000602082019050919050565b61239981612363565b6123a3818461236e565b92506123ae82612379565b8060005b838110156123df5781516123c687826122e7565b96506123d183612383565b9250506001810190506123b2565b505050505050565b6101a0820160008201516123fe60008501826122b8565b50602082015161241160208501826122b8565b506040820151612424604085018261230c565b50606082015161243760a0850182612390565b50608082015161244b610120850182612390565b50505050565b60006101a08201905061246760008301846123e7565b92915050565b60008060006060848603121561248657612485611fd2565b5b6000612494868287016120e0565b93505060206124a5868287016120e0565b92505060406124b6868287016121fe565b9150509250925092565b6124c9816121dd565b82525050565b60006020820190506124e460008301846124c0565b92915050565b6124f381612061565b81146124fe57600080fd5b50565b600081359050612510816124ea565b92915050565b6000806040838503121561252d5761252c611fd2565b5b600061253b858286016120e0565b925050602061254c85828601612501565b9150509250929050565b600080fd5b600080fd5b600080fd5b60008083601f84011261257b5761257a612556565b5b8235905067ffffffffffffffff8111156125985761259761255b565b5b6020830191508360018202830111156125b4576125b3612560565b5b9250929050565b6000806000806000608086880312156125d7576125d6611fd2565b5b60006125e5888289016120e0565b95505060206125f6888289016120e0565b9450506040612607888289016121fe565b935050606086013567ffffffffffffffff81111561262857612627611fd7565b5b61263488828901612565565b92509250509295509295909350565b6000806040838503121561265a57612659611fd2565b5b6000612668858286016120e0565b9250506020612679858286016120e0565b9150509250929050565b600080fd5b7f4e487b7100000000000000000000000000000000000000000000000000000000600052604160045260246000fd5b6126c082612171565b810181811067ffffffffffffffff821117156126df576126de612688565b5b80604052505050565b60006126f2611fc8565b90506126fe82826126b7565b919050565b61270c816122aa565b811461271757600080fd5b50565b60008135905061272981612703565b92915050565b600067ffffffffffffffff82111561274a57612749612688565b5b602082029050919050565b60006127686127638461272f565b6126e8565b9050806020840283018581111561278257612781612560565b5b835b818110156127ab5780612797888261271a565b845260208401935050602081019050612784565b5050509392505050565b600082601f8301126127ca576127c9612556565b5b60036127d7848285612755565b91505092915050565b600067ffffffffffffffff8211156127fb576127fa612688565b5b602082029050919050565b6000612819612814846127e0565b6126e8565b9050806020840283018581111561283357612832612560565b5b835b8181101561285c5780612848888261271a565b845260208401935050602081019050612835565b5050509392505050565b600082601f83011261287b5761287a612556565b5b6004612888848285612806565b91505092915050565b60006101a082840312156128a8576128a7612683565b5b6128b260a06126e8565b905060006128c28482850161271a565b60008301525060206128d68482850161271a565b60208301525060406128ea848285016127b5565b60408301525060a06128fe84828501612866565b60608301525061012061291384828501612866565b60808301525092915050565b6000806101c0838503121561293757612936611fd2565b5b6000612945858286016120e0565b925050602061295685828601612891565b9150509250929050565b60008060006101e0848603121561297a57612979611fd2565b5b6000612988868287016120e0565b9350506020612999868287016121fe565b92505060406129aa86828701612891565b9150509250925092565b7f4f776e61626c653a2063616c6c6572206973206e6f7420746865206f776e6572600082015250565b60006129ea60208361212d565b91506129f5826129b4565b602082019050919050565b60006020820190508181036000830152612a19816129dd565b9050919050565b7f4e487b7100000000000000000000000000000000000000000000000000000000600052602260045260246000fd5b60006002820490506001821680612a6757607f821691505b60208210811415612a7b57612a7a612a20565b5b50919050565b7f4e4f545f415554484f52495a4544000000000000000000000000000000000000600082015250565b6000612ab7600e8361212d565b9150612ac282612a81565b602082019050919050565b60006020820190508181036000830152612ae681612aaa565b9050919050565b7f57524f4e475f46524f4d00000000000000000000000000000000000000000000600082015250565b6000612b23600a8361212d565b9150612b2e82612aed565b602082019050919050565b60006020820190508181036000830152612b5281612b16565b9050919050565b7f494e56414c49445f524543495049454e54000000000000000000000000000000600082015250565b6000612b8f60118361212d565b9150612b9a82612b59565b602082019050919050565b60006020820190508181036000830152612bbe81612b82565b9050919050565b600082825260208201905092915050565b50565b6000612be6600083612bc5565b9150612bf182612bd6565b600082019050919050565b6000608082019050612c116000830186612240565b612c1e6020830185612240565b612c2b60408301846124c0565b8181036060830152612c3c81612bd9565b9050949350505050565b600081519050612c5581612008565b92915050565b600060208284031215612c7157612c70611fd2565b5b6000612c7f84828501612c46565b91505092915050565b7f554e534146455f524543495049454e5400000000000000000000000000000000600082015250565b6000612cbe60108361212d565b9150612cc982612c88565b602082019050919050565b60006020820190508181036000830152612ced81612cb1565b9050919050565b82818337600083830152505050565b6000612d0f8385612bc5565b9350612d1c838584612cf4565b612d2583612171565b840190509392505050565b6000608082019050612d456000830188612240565b612d526020830187612240565b612d5f60408301866124c0565b8181036060830152612d72818486612d03565b90509695505050505050565b600080fd5b600067ffffffffffffffff821115612d9e57612d9d612688565b5b612da782612171565b9050602081019050919050565b6000612dc7612dc284612d83565b6126e8565b905082815260208101848484011115612de357612de2612d7e565b5b612dee84828561213e565b509392505050565b600082601f830112612e0b57612e0a612556565b5b8151612e1b848260208601612db4565b91505092915050565b600060208284031215612e3a57612e39611fd2565b5b600082015167ffffffffffffffff811115612e5857612e57611fd7565b5b612e6484828501612df6565b91505092915050565b7f4f6e6c79207468652070697a7a612073686f702063616e2063616c6c2074686960008201527f73206d6574686f642e0000000000000000000000000000000000000000000000602082015250565b6000612ec960298361212d565b9150612ed482612e6d565b604082019050919050565b60006020820190508181036000830152612ef881612ebc565b9050919050565b7f4f776e61626c653a206e6577206f776e657220697320746865207a65726f206160008201527f6464726573730000000000000000000000000000000000000000000000000000602082015250565b6000612f5b60268361212d565b9150612f6682612eff565b604082019050919050565b60006020820190508181036000830152612f8a81612f4e565b9050919050565b7f42616b657220646f65736e2774206f776e20746869732070697a7a612e000000600082015250565b6000612fc7601d8361212d565b9150612fd282612f91565b602082019050919050565b60006020820190508181036000830152612ff681612fba565b9050919050565b7f414c52454144595f4d494e544544000000000000000000000000000000000000600082015250565b6000613033600e8361212d565b915061303e82612ffd565b602082019050919050565b6000602082019050818103600083015261306281613026565b905091905056fea26469706673582212207c016100afdb34e02f053d0388ccb4cebe564854536abb1fb32d3b0b465c5a9464736f6c63430008090033",
  "linkReferences": {},
  "deployedLinkReferences": {}
}